{
  "address": "0x50DBc4C27A817BEfb34697490F0988215B28b0B7",
  "abi": [
    {
      "inputs": [
        {
          "internalType": "address",
          "name": "_oracle",
          "type": "address"
        },
        {
          "internalType": "uint256",
          "name": "_fee",
          "type": "uint256"
        },
        {
          "internalType": "address",
          "name": "_link",
          "type": "address"
        }
      ],
      "stateMutability": "nonpayable",
      "type": "constructor"
    },
    {
      "anonymous": false,
      "inputs": [
        {
          "indexed": true,
          "internalType": "bytes32",
          "name": "id",
          "type": "bytes32"
        }
      ],
      "name": "ChainlinkCancelled",
      "type": "event"
    },
    {
      "anonymous": false,
      "inputs": [
        {
          "indexed": true,
          "internalType": "bytes32",
          "name": "id",
          "type": "bytes32"
        }
      ],
      "name": "ChainlinkFulfilled",
      "type": "event"
    },
    {
      "anonymous": false,
      "inputs": [
        {
          "indexed": true,
          "internalType": "bytes32",
          "name": "id",
          "type": "bytes32"
        }
      ],
      "name": "ChainlinkRequested",
      "type": "event"
    },
    {
      "anonymous": false,
      "inputs": [
        {
          "indexed": false,
          "internalType": "uint256",
          "name": "volume",
          "type": "uint256"
        }
      ],
      "name": "DataFulfilled",
      "type": "event"
    },
    {
      "inputs": [
        {
          "internalType": "bytes32",
          "name": "_requestId",
          "type": "bytes32"
        },
        {
          "internalType": "uint256",
          "name": "_volume",
          "type": "uint256"
        }
      ],
      "name": "fulfill",
      "outputs": [],
      "stateMutability": "nonpayable",
      "type": "function"
    },
    {
      "inputs": [],
      "name": "requestVolume",
      "outputs": [
        {
          "internalType": "bytes32",
          "name": "requestId",
          "type": "bytes32"
        }
      ],
      "stateMutability": "nonpayable",
      "type": "function"
    },
    {
      "inputs": [],
      "name": "volume",
      "outputs": [
        {
          "internalType": "uint256",
          "name": "",
          "type": "uint256"
        }
      ],
      "stateMutability": "view",
      "type": "function"
    },
    {
      "inputs": [],
      "name": "withdrawLink",
      "outputs": [],
      "stateMutability": "nonpayable",
      "type": "function"
    }
  ],
  "transactionHash": "0xc894120ecc450b5dd6646ed18c8600d7424ba5433d17ad43cbd34b06169dd26f",
  "args": [
    "0x6090149792dAAeE9D1D568c9f9a6F6B46AA29eFD",
    "100000000000000000",
    "0x779877A7B0D9E8603169DdbD7836e478b4624789"
  ],
  "numDeployments": 1,
  "solcInputHash": "b7ca39983cbeb28ab2e7c5443123a6f9",
  "bytecode": "0x60e060405260016004553480156200001657600080fd5b5060405162001d7438038062001d7483398181016040528101906200003c919062000298565b600073ffffffffffffffffffffffffffffffffffffffff168173ffffffffffffffffffffffffffffffffffffffff1614156200008857620000826200010760201b60201c565b6200009a565b6200009981620001af60201b60201c565b5b8273ffffffffffffffffffffffffffffffffffffffff1660808173ffffffffffffffffffffffffffffffffffffffff16815250507f636139383336366363373331343935376238633031326337326630356165656260a081815250508160c0818152505050505062000326565b620001ad73c89bd4e1632d3a43cb03aaad5262cbe4038bc57173ffffffffffffffffffffffffffffffffffffffff166338cc48316040518163ffffffff1660e01b815260040160206040518083038186803b1580156200016657600080fd5b505afa1580156200017b573d6000803e3d6000fd5b505050506040513d601f19601f82011682018060405250810190620001a19190620002f4565b620001af60201b60201c565b565b80600260006101000a81548173ffffffffffffffffffffffffffffffffffffffff021916908373ffffffffffffffffffffffffffffffffffffffff16021790555050565b600080fd5b600073ffffffffffffffffffffffffffffffffffffffff82169050919050565b60006200022582620001f8565b9050919050565b620002378162000218565b81146200024357600080fd5b50565b60008151905062000257816200022c565b92915050565b6000819050919050565b62000272816200025d565b81146200027e57600080fd5b50565b600081519050620002928162000267565b92915050565b600080600060608486031215620002b457620002b3620001f3565b5b6000620002c48682870162000246565b9350506020620002d78682870162000281565b9250506040620002ea8682870162000246565b9150509250925092565b6000602082840312156200030d576200030c620001f3565b5b60006200031d8482850162000246565b91505092915050565b60805160a05160c051611a226200035260003960006102280152600060bb015260005050611a226000f3fe608060405234801561001057600080fd5b506004361061004c5760003560e01c80631c365472146100515780634357855e1461006f5780638dc654a21461008b578063c618a1e414610095575b600080fd5b6100596100b3565b6040516100669190610fdf565b60405180910390f35b61008960048036038101906100849190611061565b610253565b005b61009361039d565b005b61009d610500565b6040516100aa91906110b0565b60405180910390f35b6000806100e87f000000000000000000000000000000000000000000000000000000000000000030634357855e60e01b610506565b905061014c6040518060400160405280600381526020017f67657400000000000000000000000000000000000000000000000000000000008152506040518060800160405280604981526020016119a460499139836105379092919063ffffffff16565b6101cb6040518060400160405280600481526020017f70617468000000000000000000000000000000000000000000000000000000008152506040518060400160405280601881526020017f5241572c4554482c5553442c564f4c554d453234484f55520000000000000000815250836105379092919063ffffffff16565b6000670de0b6b3a764000090506102226040518060400160405280600581526020017f74696d6573000000000000000000000000000000000000000000000000000000815250828461056a9092919063ffffffff16565b61024c827f000000000000000000000000000000000000000000000000000000000000000061059d565b9250505090565b816005600082815260200190815260200160002060009054906101000a900473ffffffffffffffffffffffffffffffffffffffff1673ffffffffffffffffffffffffffffffffffffffff163373ffffffffffffffffffffffffffffffffffffffff16146102f5576040517f08c379a00000000000000000000000000000000000000000000000000000000081526004016102ec9061114e565b60405180910390fd5b6005600082815260200190815260200160002060006101000a81549073ffffffffffffffffffffffffffffffffffffffff0219169055807f7cc135e0cebb02c3480ae5d74d377283180a2601f8f644edf7987b009316c63a60405160405180910390a27f77b7a960c5a6c84ace7f0e6ea4c247922bed85273a0bfec39b73075e195b277360065460405161038991906110b0565b60405180910390a181600681905550505050565b60006103a76105d4565b90508073ffffffffffffffffffffffffffffffffffffffff1663a9059cbb338373ffffffffffffffffffffffffffffffffffffffff166370a08231306040518263ffffffff1660e01b81526004016103ff91906111af565b60206040518083038186803b15801561041757600080fd5b505afa15801561042b573d6000803e3d6000fd5b505050506040513d601f19601f8201168201806040525081019061044f91906111df565b6040518363ffffffff1660e01b815260040161046c92919061120c565b602060405180830381600087803b15801561048657600080fd5b505af115801561049a573d6000803e3d6000fd5b505050506040513d601f19601f820116820180604052508101906104be919061126d565b6104fd576040517f08c379a00000000000000000000000000000000000000000000000000000000081526004016104f4906112e6565b60405180910390fd5b50565b60065481565b61050e610f3f565b610516610f3f565b61052d858585846105fe909392919063ffffffff16565b9150509392505050565b61054e8284608001516106ae90919063ffffffff16565b6105658184608001516106ae90919063ffffffff16565b505050565b6105818284608001516106ae90919063ffffffff16565b6105988184608001516106d390919063ffffffff16565b505050565b60006105cc600360009054906101000a900473ffffffffffffffffffffffffffffffffffffffff168484610780565b905092915050565b6000600260009054906101000a900473ffffffffffffffffffffffffffffffffffffffff16905090565b610606610f3f565b610616856080015161010061084c565b508385600001818152505082856020019073ffffffffffffffffffffffffffffffffffffffff16908173ffffffffffffffffffffffffffffffffffffffff16815250508185604001907bffffffffffffffffffffffffffffffffffffffffffffffffffffffff191690817bffffffffffffffffffffffffffffffffffffffffffffffffffffffff191681525050849050949350505050565b6106bb82600383516108b6565b6106ce8183610a3b90919063ffffffff16565b505050565b7fffffffffffffffffffffffffffffffffffffffffffffffff000000000000000081121561070a576107058282610a5d565b61077c565b67ffffffffffffffff811315610729576107248282610ad4565b61077b565b600081126107425761073d826000836108b6565b61077a565b610779826001837fffffffffffffffffffffffffffffffffffffffffffffffffffffffffffffffff610774919061133f565b6108b6565b5b5b5b5050565b600080600454905060018161079591906113d3565b6004819055506000634042994660e01b60008087600001513089604001518760018c60800151600001516040516024016107d69897969594939291906114fd565b604051602081830303815290604052907bffffffffffffffffffffffffffffffffffffffffffffffffffffffff19166020820180517bffffffffffffffffffffffffffffffffffffffffffffffffffffffff8381831617835250505050905061084186838684610b20565b925050509392505050565b610854610fac565b600060208361086391906115b1565b1461088f5760208261087591906115b1565b602061088191906115e2565b8261088c91906113d3565b91505b81836020018181525050604051808452600081528281016020016040525082905092915050565b60178167ffffffffffffffff16116108ed576108e78160058460ff16901b60ff161784610cc490919063ffffffff16565b50610a36565b60ff8167ffffffffffffffff16116109435761091c601860058460ff16901b1784610cc490919063ffffffff16565b5061093d8167ffffffffffffffff16600185610ce49092919063ffffffff16565b50610a35565b61ffff8167ffffffffffffffff161161099a57610973601960058460ff16901b1784610cc490919063ffffffff16565b506109948167ffffffffffffffff16600285610ce49092919063ffffffff16565b50610a34565b63ffffffff8167ffffffffffffffff16116109f3576109cc601a60058460ff16901b1784610cc490919063ffffffff16565b506109ed8167ffffffffffffffff16600485610ce49092919063ffffffff16565b50610a33565b610a10601b60058460ff16901b1784610cc490919063ffffffff16565b50610a318167ffffffffffffffff16600885610ce49092919063ffffffff16565b505b5b5b5b505050565b610a43610fac565b610a5583846000015151848551610d06565b905092915050565b610a7b60036005600660ff16901b1783610cc490919063ffffffff16565b50610ad082827fffffffffffffffffffffffffffffffffffffffffffffffffffffffffffffffff610aac919061133f565b604051602001610abc91906110b0565b604051602081830303815290604052610df5565b5050565b610af260026005600660ff16901b1783610cc490919063ffffffff16565b50610b1c8282604051602001610b0891906110b0565b604051602081830303815290604052610df5565b5050565b60003084604051602001610b359291906116cf565b604051602081830303815290604052805190602001209050846005600083815260200190815260200160002060006101000a81548173ffffffffffffffffffffffffffffffffffffffff021916908373ffffffffffffffffffffffffffffffffffffffff160217905550807fb5e6e01e79f91267dc17b4e6314d5d4d03593d2ceee0fbb452b750bd70ea5af960405160405180910390a2600260009054906101000a900473ffffffffffffffffffffffffffffffffffffffff1673ffffffffffffffffffffffffffffffffffffffff16634000aea08685856040518463ffffffff1660e01b8152600401610c2b939291906116fb565b602060405180830381600087803b158015610c4557600080fd5b505af1158015610c59573d6000803e3d6000fd5b505050506040513d601f19601f82011682018060405250810190610c7d919061126d565b610cbc576040517f08c379a0000000000000000000000000000000000000000000000000000000008152600401610cb3906117ab565b60405180910390fd5b949350505050565b610ccc610fac565b610cdc8384600001515184610e1a565b905092915050565b610cec610fac565b610cfd848560000151518585610e71565b90509392505050565b610d0e610fac565b8251821115610d1c57600080fd5b84602001518285610d2d91906113d3565b1115610d6257610d61856002610d5288602001518887610d4d91906113d3565b610eff565b610d5c91906117cb565b610f1b565b5b600080865180518760208301019350808887011115610d815787860182525b60208701925050505b60208410610dc85780518252602082610da391906113d3565b9150602081610db291906113d3565b9050602084610dc191906115e2565b9350610d8a565b60006001856020036101000a03905080198251168184511681811785525050508692505050949350505050565b610e0282600283516108b6565b610e158183610a3b90919063ffffffff16565b505050565b610e22610fac565b83602001518310610e4857610e478460028660200151610e4291906117cb565b610f1b565b5b8351805160208583010184815381861415610e64576001820183525b5050508390509392505050565b610e79610fac565b84602001518483610e8a91906113d3565b1115610eb257610eb18560028685610ea291906113d3565b610eac91906117cb565b610f1b565b5b6000600183610100610ec49190611958565b610ece91906115e2565b90508551838682010185831982511617815281518588011115610ef15784870182525b505085915050949350505050565b600081831115610f1157829050610f15565b8190505b92915050565b600082600001519050610f2e838361084c565b50610f398382610a3b565b50505050565b6040518060a0016040528060008019168152602001600073ffffffffffffffffffffffffffffffffffffffff16815260200160007bffffffffffffffffffffffffffffffffffffffffffffffffffffffff1916815260200160008152602001610fa6610fac565b81525090565b604051806040016040528060608152602001600081525090565b6000819050919050565b610fd981610fc6565b82525050565b6000602082019050610ff46000830184610fd0565b92915050565b600080fd5b61100881610fc6565b811461101357600080fd5b50565b60008135905061102581610fff565b92915050565b6000819050919050565b61103e8161102b565b811461104957600080fd5b50565b60008135905061105b81611035565b92915050565b6000806040838503121561107857611077610ffa565b5b600061108685828601611016565b92505060206110978582860161104c565b9150509250929050565b6110aa8161102b565b82525050565b60006020820190506110c560008301846110a1565b92915050565b600082825260208201905092915050565b7f536f75726365206d75737420626520746865206f7261636c65206f662074686560008201527f2072657175657374000000000000000000000000000000000000000000000000602082015250565b60006111386028836110cb565b9150611143826110dc565b604082019050919050565b600060208201905081810360008301526111678161112b565b9050919050565b600073ffffffffffffffffffffffffffffffffffffffff82169050919050565b60006111998261116e565b9050919050565b6111a98161118e565b82525050565b60006020820190506111c460008301846111a0565b92915050565b6000815190506111d981611035565b92915050565b6000602082840312156111f5576111f4610ffa565b5b6000611203848285016111ca565b91505092915050565b600060408201905061122160008301856111a0565b61122e60208301846110a1565b9392505050565b60008115159050919050565b61124a81611235565b811461125557600080fd5b50565b60008151905061126781611241565b92915050565b60006020828403121561128357611282610ffa565b5b600061129184828501611258565b91505092915050565b7f556e61626c6520746f207472616e736665720000000000000000000000000000600082015250565b60006112d06012836110cb565b91506112db8261129a565b602082019050919050565b600060208201905081810360008301526112ff816112c3565b9050919050565b6000819050919050565b7f4e487b7100000000000000000000000000000000000000000000000000000000600052601160045260246000fd5b600061134a82611306565b915061135583611306565b9250827f8000000000000000000000000000000000000000000000000000000000000000018212600084121516156113905761138f611310565b5b827f7fffffffffffffffffffffffffffffffffffffffffffffffffffffffffffffff0182136000841216156113c8576113c7611310565b5b828203905092915050565b60006113de8261102b565b91506113e98361102b565b9250827fffffffffffffffffffffffffffffffffffffffffffffffffffffffffffffffff0382111561141e5761141d611310565b5b828201905092915050565b60007fffffffff0000000000000000000000000000000000000000000000000000000082169050919050565b61145e81611429565b82525050565b600081519050919050565b600082825260208201905092915050565b60005b8381101561149e578082015181840152602081019050611483565b838111156114ad576000848401525b50505050565b6000601f19601f8301169050919050565b60006114cf82611464565b6114d9818561146f565b93506114e9818560208601611480565b6114f2816114b3565b840191505092915050565b600061010082019050611513600083018b6111a0565b611520602083018a6110a1565b61152d6040830189610fd0565b61153a60608301886111a0565b6115476080830187611455565b61155460a08301866110a1565b61156160c08301856110a1565b81810360e083015261157381846114c4565b90509998505050505050505050565b7f4e487b7100000000000000000000000000000000000000000000000000000000600052601260045260246000fd5b60006115bc8261102b565b91506115c78361102b565b9250826115d7576115d6611582565b5b828206905092915050565b60006115ed8261102b565b91506115f88361102b565b92508282101561160b5761160a611310565b5b828203905092915050565b6000819050919050565b600061163b6116366116318461116e565b611616565b61116e565b9050919050565b600061164d82611620565b9050919050565b600061165f82611642565b9050919050565b60008160601b9050919050565b600061167e82611666565b9050919050565b600061169082611673565b9050919050565b6116a86116a382611654565b611685565b82525050565b6000819050919050565b6116c96116c48261102b565b6116ae565b82525050565b60006116db8285611697565b6014820191506116eb82846116b8565b6020820191508190509392505050565b600060608201905061171060008301866111a0565b61171d60208301856110a1565b818103604083015261172f81846114c4565b9050949350505050565b7f756e61626c6520746f207472616e73666572416e6443616c6c20746f206f726160008201527f636c650000000000000000000000000000000000000000000000000000000000602082015250565b60006117956023836110cb565b91506117a082611739565b604082019050919050565b600060208201905081810360008301526117c481611788565b9050919050565b60006117d68261102b565b91506117e18361102b565b9250817fffffffffffffffffffffffffffffffffffffffffffffffffffffffffffffffff048311821515161561181a57611819611310565b5b828202905092915050565b60008160011c9050919050565b6000808291508390505b600185111561187c5780860481111561185857611857611310565b5b60018516156118675780820291505b808102905061187585611825565b945061183c565b94509492505050565b6000826118955760019050611951565b816118a35760009050611951565b81600181146118b957600281146118c3576118f2565b6001915050611951565b60ff8411156118d5576118d4611310565b5b8360020a9150848211156118ec576118eb611310565b5b50611951565b5060208310610133831016604e8410600b84101617156119275782820a90508381111561192257611921611310565b5b611951565b6119348484846001611832565b9250905081840481111561194b5761194a611310565b5b81810290505b9392505050565b60006119638261102b565b915061196e8361102b565b925061199b7fffffffffffffffffffffffffffffffffffffffffffffffffffffffffffffffff8484611885565b90509291505056fe68747470733a2f2f6d696e2d6170692e63727970746f636f6d706172652e636f6d2f646174612f70726963656d756c746966756c6c3f6673796d733d455448267473796d733d555344a26469706673582212208793a1451d67efc38d19ea427969f53c1547cb2233e705ab66ec89da7737e3bb64736f6c63430008090033",
  "devdoc": {
    "kind": "dev",
    "methods": {},
    "version": 1
  },
  "userdoc": {
    "kind": "user",
    "methods": {},
    "version": 1
  },
  "storageLayout": {
    "storage": [
      {
        "astId": 319,
        "contract": "contracts/AnyApiTask.sol:AnyApiTask",
        "label": "s_ens",
        "offset": 0,
        "slot": "0",
        "type": "t_contract(ENSInterface)974"
      },
      {
        "astId": 321,
        "contract": "contracts/AnyApiTask.sol:AnyApiTask",
        "label": "s_ensNode",
        "offset": 0,
        "slot": "1",
        "type": "t_bytes32"
      },
      {
        "astId": 324,
        "contract": "contracts/AnyApiTask.sol:AnyApiTask",
        "label": "s_link",
        "offset": 0,
        "slot": "2",
        "type": "t_contract(LinkTokenInterface)1069"
      },
      {
        "astId": 327,
        "contract": "contracts/AnyApiTask.sol:AnyApiTask",
        "label": "s_oracle",
        "offset": 0,
        "slot": "3",
        "type": "t_contract(OperatorInterface)1149"
      },
      {
        "astId": 330,
        "contract": "contracts/AnyApiTask.sol:AnyApiTask",
        "label": "s_requestCount",
        "offset": 0,
        "slot": "4",
        "type": "t_uint256"
      },
      {
        "astId": 334,
        "contract": "contracts/AnyApiTask.sol:AnyApiTask",
        "label": "s_pendingRequests",
        "offset": 0,
        "slot": "5",
        "type": "t_mapping(t_bytes32,t_address)"
      },
      {
        "astId": 2186,
        "contract": "contracts/AnyApiTask.sol:AnyApiTask",
        "label": "volume",
        "offset": 0,
        "slot": "6",
        "type": "t_uint256"
      }
    ],
    "types": {
      "t_address": {
        "encoding": "inplace",
        "label": "address",
        "numberOfBytes": "20"
      },
      "t_bytes32": {
        "encoding": "inplace",
        "label": "bytes32",
        "numberOfBytes": "32"
      },
      "t_contract(ENSInterface)974": {
        "encoding": "inplace",
        "label": "contract ENSInterface",
        "numberOfBytes": "20"
      },
      "t_contract(LinkTokenInterface)1069": {
        "encoding": "inplace",
        "label": "contract LinkTokenInterface",
        "numberOfBytes": "20"
      },
      "t_contract(OperatorInterface)1149": {
        "encoding": "inplace",
        "label": "contract OperatorInterface",
        "numberOfBytes": "20"
      },
      "t_mapping(t_bytes32,t_address)": {
        "encoding": "mapping",
        "key": "t_bytes32",
        "label": "mapping(bytes32 => address)",
        "numberOfBytes": "32",
        "value": "t_address"
      },
      "t_uint256": {
        "encoding": "inplace",
        "label": "uint256",
        "numberOfBytes": "32"
      }
    }
  }
}