{
  "address": "0xa28CF010AeDCD9dcE05D2DDafA3ffCC58F1856CD",
  "abi": [
    {
      "inputs": [
        {
          "internalType": "address",
          "name": "_nftAddress",
          "type": "address"
        }
      ],
      "stateMutability": "nonpayable",
      "type": "constructor"
    },
    {
      "anonymous": false,
      "inputs": [
        {
          "indexed": true,
          "internalType": "bytes32",
          "name": "id",
          "type": "bytes32"
        }
      ],
      "name": "ChainlinkCancelled",
      "type": "event"
    },
    {
      "anonymous": false,
      "inputs": [
        {
          "indexed": true,
          "internalType": "bytes32",
          "name": "id",
          "type": "bytes32"
        }
      ],
      "name": "ChainlinkFulfilled",
      "type": "event"
    },
    {
      "anonymous": false,
      "inputs": [
        {
          "indexed": true,
          "internalType": "bytes32",
          "name": "id",
          "type": "bytes32"
        }
      ],
      "name": "ChainlinkRequested",
      "type": "event"
    },
    {
      "anonymous": false,
      "inputs": [
        {
          "indexed": true,
          "internalType": "address",
          "name": "from",
          "type": "address"
        },
        {
          "indexed": true,
          "internalType": "address",
          "name": "to",
          "type": "address"
        }
      ],
      "name": "OwnershipTransferRequested",
      "type": "event"
    },
    {
      "anonymous": false,
      "inputs": [
        {
          "indexed": true,
          "internalType": "address",
          "name": "from",
          "type": "address"
        },
        {
          "indexed": true,
          "internalType": "address",
          "name": "to",
          "type": "address"
        }
      ],
      "name": "OwnershipTransferred",
      "type": "event"
    },
    {
      "anonymous": false,
      "inputs": [
        {
          "indexed": true,
          "internalType": "bytes32",
          "name": "requestId",
          "type": "bytes32"
        },
        {
          "indexed": false,
          "internalType": "uint256",
          "name": "temperature",
          "type": "uint256"
        }
      ],
      "name": "RequestTemperature",
      "type": "event"
    },
    {
      "inputs": [],
      "name": "acceptOwnership",
      "outputs": [],
      "stateMutability": "nonpayable",
      "type": "function"
    },
    {
      "inputs": [
        {
          "internalType": "bytes32",
          "name": "_requestId",
          "type": "bytes32"
        },
        {
          "internalType": "uint256",
          "name": "_temperature",
          "type": "uint256"
        }
      ],
      "name": "fulfill",
      "outputs": [],
      "stateMutability": "nonpayable",
      "type": "function"
    },
    {
      "inputs": [],
      "name": "nftAddress",
      "outputs": [
        {
          "internalType": "address",
          "name": "",
          "type": "address"
        }
      ],
      "stateMutability": "view",
      "type": "function"
    },
    {
      "inputs": [],
      "name": "owner",
      "outputs": [
        {
          "internalType": "address",
          "name": "",
          "type": "address"
        }
      ],
      "stateMutability": "view",
      "type": "function"
    },
    {
      "inputs": [],
      "name": "requestTemperature",
      "outputs": [
        {
          "internalType": "bytes32",
          "name": "requestId",
          "type": "bytes32"
        }
      ],
      "stateMutability": "nonpayable",
      "type": "function"
    },
    {
      "inputs": [],
      "name": "temperature",
      "outputs": [
        {
          "internalType": "uint256",
          "name": "",
          "type": "uint256"
        }
      ],
      "stateMutability": "view",
      "type": "function"
    },
    {
      "inputs": [
        {
          "internalType": "address",
          "name": "to",
          "type": "address"
        }
      ],
      "name": "transferOwnership",
      "outputs": [],
      "stateMutability": "nonpayable",
      "type": "function"
    },
    {
      "inputs": [
        {
          "internalType": "address",
          "name": "addressToUpdate",
          "type": "address"
        }
      ],
      "name": "updateNftAddress",
      "outputs": [],
      "stateMutability": "nonpayable",
      "type": "function"
    },
    {
      "inputs": [],
      "name": "withdrawLink",
      "outputs": [],
      "stateMutability": "nonpayable",
      "type": "function"
    }
  ],
  "transactionHash": "0x85aa2afff4ca14ce1974d1d13738addb549ee474c31ce09d8ec4c65c44b33223",
  "args": [
    "0x740daca9f5744aa1fBd4634c95fcD2b8e7E68Bd0"
  ],
  "numDeployments": 3,
  "solcInputHash": "5a6e2f39a8d13e159315f6c02d9fa00a",
  "bytecode": "0x608060405260016004553480156200001657600080fd5b50604051620027dd380380620027dd83398181016040528101906200003c9190620004a8565b338060008073ffffffffffffffffffffffffffffffffffffffff168273ffffffffffffffffffffffffffffffffffffffff161415620000b2576040517f08c379a0000000000000000000000000000000000000000000000000000000008152600401620000a9906200053b565b60405180910390fd5b81600660006101000a81548173ffffffffffffffffffffffffffffffffffffffff021916908373ffffffffffffffffffffffffffffffffffffffff160217905550600073ffffffffffffffffffffffffffffffffffffffff168173ffffffffffffffffffffffffffffffffffffffff16146200013a5762000139816200028460201b60201c565b5b5050506200016273779877a7b0d9e8603169ddbd7836e478b4624789620003b660201b60201c565b62000187736090149792daaee9d1d568c9f9a6f6b46aa29efd620003fa60201b60201c565b7f6361393833363663633733313439353762386330313263373266303561656562600981905550600a670de0b6b3a76400006001620001c7919062000596565b620001d3919062000626565b600a8190555080600b60006101000a81548173ffffffffffffffffffffffffffffffffffffffff021916908373ffffffffffffffffffffffffffffffffffffffff160217905550600b60009054906101000a900473ffffffffffffffffffffffffffffffffffffffff16600c60006101000a81548173ffffffffffffffffffffffffffffffffffffffff021916908373ffffffffffffffffffffffffffffffffffffffff16021790555050620006d0565b3373ffffffffffffffffffffffffffffffffffffffff168173ffffffffffffffffffffffffffffffffffffffff161415620002f6576040517f08c379a0000000000000000000000000000000000000000000000000000000008152600401620002ed90620006ae565b60405180910390fd5b80600760006101000a81548173ffffffffffffffffffffffffffffffffffffffff021916908373ffffffffffffffffffffffffffffffffffffffff1602179055508073ffffffffffffffffffffffffffffffffffffffff16600660009054906101000a900473ffffffffffffffffffffffffffffffffffffffff1673ffffffffffffffffffffffffffffffffffffffff167fed8889f560326eb138920d842192f0eb3dd22b4f139c87a2c57538e05bae127860405160405180910390a350565b80600260006101000a81548173ffffffffffffffffffffffffffffffffffffffff021916908373ffffffffffffffffffffffffffffffffffffffff16021790555050565b80600360006101000a81548173ffffffffffffffffffffffffffffffffffffffff021916908373ffffffffffffffffffffffffffffffffffffffff16021790555050565b600080fd5b600073ffffffffffffffffffffffffffffffffffffffff82169050919050565b6000620004708262000443565b9050919050565b620004828162000463565b81146200048e57600080fd5b50565b600081519050620004a28162000477565b92915050565b600060208284031215620004c157620004c06200043e565b5b6000620004d18482850162000491565b91505092915050565b600082825260208201905092915050565b7f43616e6e6f7420736574206f776e657220746f207a65726f0000000000000000600082015250565b600062000523601883620004da565b91506200053082620004eb565b602082019050919050565b60006020820190508181036000830152620005568162000514565b9050919050565b6000819050919050565b7f4e487b7100000000000000000000000000000000000000000000000000000000600052601160045260246000fd5b6000620005a3826200055d565b9150620005b0836200055d565b9250817fffffffffffffffffffffffffffffffffffffffffffffffffffffffffffffffff0483118215151615620005ec57620005eb62000567565b5b828202905092915050565b7f4e487b7100000000000000000000000000000000000000000000000000000000600052601260045260246000fd5b600062000633826200055d565b915062000640836200055d565b925082620006535762000652620005f7565b5b828204905092915050565b7f43616e6e6f74207472616e7366657220746f2073656c66000000000000000000600082015250565b600062000696601783620004da565b9150620006a3826200065e565b602082019050919050565b60006020820190508181036000830152620006c98162000687565b9050919050565b6120fd80620006e06000396000f3fe608060405234801561001057600080fd5b50600436106100935760003560e01c80638dc654a2116100665780638dc654a2146100fa578063a1df4e7c14610104578063adccea1214610122578063e5eb7ae814610140578063f2fde38b1461015c57610093565b80634357855e146100985780635bf8633a146100b457806379ba5097146100d25780638da5cb5b146100dc575b600080fd5b6100b260048036038101906100ad919061155e565b610178565b005b6100bc610350565b6040516100c991906115df565b60405180910390f35b6100da610376565b005b6100e461050d565b6040516100f191906115df565b60405180910390f35b610102610537565b005b61010c6106a2565b6040516101199190611609565b60405180910390f35b61012a610806565b6040516101379190611633565b60405180910390f35b61015a6004803603810190610155919061167a565b61080c565b005b6101766004803603810190610171919061167a565b610858565b005b816005600082815260200190815260200160002060009054906101000a900473ffffffffffffffffffffffffffffffffffffffff1673ffffffffffffffffffffffffffffffffffffffff163373ffffffffffffffffffffffffffffffffffffffff161461021a576040517f08c379a00000000000000000000000000000000000000000000000000000000081526004016102119061172a565b60405180910390fd5b6005600082815260200190815260200160002060006101000a81549073ffffffffffffffffffffffffffffffffffffffff0219169055807f7cc135e0cebb02c3480ae5d74d377283180a2601f8f644edf7987b009316c63a60405160405180910390a281600881905550600c60009054906101000a900473ffffffffffffffffffffffffffffffffffffffff1673ffffffffffffffffffffffffffffffffffffffff16636fcb85006008546040518263ffffffff1660e01b81526004016102e19190611633565b600060405180830381600087803b1580156102fb57600080fd5b505af115801561030f573d6000803e3d6000fd5b50505050827fe78d462e5b267f45854758f0687f24365bbc54861f62fa130714b75dcb2416ad836040516103439190611633565b60405180910390a2505050565b600b60009054906101000a900473ffffffffffffffffffffffffffffffffffffffff1681565b600760009054906101000a900473ffffffffffffffffffffffffffffffffffffffff1673ffffffffffffffffffffffffffffffffffffffff163373ffffffffffffffffffffffffffffffffffffffff1614610406576040517f08c379a00000000000000000000000000000000000000000000000000000000081526004016103fd90611796565b60405180910390fd5b6000600660009054906101000a900473ffffffffffffffffffffffffffffffffffffffff16905033600660006101000a81548173ffffffffffffffffffffffffffffffffffffffff021916908373ffffffffffffffffffffffffffffffffffffffff1602179055506000600760006101000a81548173ffffffffffffffffffffffffffffffffffffffff021916908373ffffffffffffffffffffffffffffffffffffffff1602179055503373ffffffffffffffffffffffffffffffffffffffff168173ffffffffffffffffffffffffffffffffffffffff167f8be0079c531659141344cd1fd0a4f28419497f9722a3daafe3b4186f6b6457e060405160405180910390a350565b6000600660009054906101000a900473ffffffffffffffffffffffffffffffffffffffff16905090565b61053f61086c565b60006105496108fe565b90508073ffffffffffffffffffffffffffffffffffffffff1663a9059cbb338373ffffffffffffffffffffffffffffffffffffffff166370a08231306040518263ffffffff1660e01b81526004016105a191906115df565b60206040518083038186803b1580156105b957600080fd5b505afa1580156105cd573d6000803e3d6000fd5b505050506040513d601f19601f820116820180604052508101906105f191906117cb565b6040518363ffffffff1660e01b815260040161060e9291906117f8565b602060405180830381600087803b15801561062857600080fd5b505af115801561063c573d6000803e3d6000fd5b505050506040513d601f19601f820116820180604052508101906106609190611859565b61069f576040517f08c379a0000000000000000000000000000000000000000000000000000000008152600401610696906118d2565b60405180910390fd5b50565b6000806106b960095430634357855e60e01b610928565b905061071d6040518060400160405280600381526020017f676574000000000000000000000000000000000000000000000000000000000081525060405180608001604052806060815260200161206860609139836109599092919063ffffffff16565b61079c6040518060400160405280600481526020017f70617468000000000000000000000000000000000000000000000000000000008152506040518060400160405280601781526020017f242e6c697665735b3a355d2e74656d7065726174757265000000000000000000815250836109599092919063ffffffff16565b6000670de0b6b3a764000090506107f36040518060400160405280600581526020017f74696d6573000000000000000000000000000000000000000000000000000000815250828461098c9092919063ffffffff16565b6107ff82600a546109bf565b9250505090565b60085481565b61081461086c565b80600b60006101000a81548173ffffffffffffffffffffffffffffffffffffffff021916908373ffffffffffffffffffffffffffffffffffffffff16021790555050565b61086061086c565b610869816109f6565b50565b600660009054906101000a900473ffffffffffffffffffffffffffffffffffffffff1673ffffffffffffffffffffffffffffffffffffffff163373ffffffffffffffffffffffffffffffffffffffff16146108fc576040517f08c379a00000000000000000000000000000000000000000000000000000000081526004016108f39061193e565b60405180910390fd5b565b6000600260009054906101000a900473ffffffffffffffffffffffffffffffffffffffff16905090565b610930611466565b610938611466565b61094f85858584610b25909392919063ffffffff16565b9150509392505050565b610970828460800151610bd590919063ffffffff16565b610987818460800151610bd590919063ffffffff16565b505050565b6109a3828460800151610bd590919063ffffffff16565b6109ba818460800151610bfa90919063ffffffff16565b505050565b60006109ee600360009054906101000a900473ffffffffffffffffffffffffffffffffffffffff168484610ca7565b905092915050565b3373ffffffffffffffffffffffffffffffffffffffff168173ffffffffffffffffffffffffffffffffffffffff161415610a65576040517f08c379a0000000000000000000000000000000000000000000000000000000008152600401610a5c906119aa565b60405180910390fd5b80600760006101000a81548173ffffffffffffffffffffffffffffffffffffffff021916908373ffffffffffffffffffffffffffffffffffffffff1602179055508073ffffffffffffffffffffffffffffffffffffffff16600660009054906101000a900473ffffffffffffffffffffffffffffffffffffffff1673ffffffffffffffffffffffffffffffffffffffff167fed8889f560326eb138920d842192f0eb3dd22b4f139c87a2c57538e05bae127860405160405180910390a350565b610b2d611466565b610b3d8560800151610100610d73565b508385600001818152505082856020019073ffffffffffffffffffffffffffffffffffffffff16908173ffffffffffffffffffffffffffffffffffffffff16815250508185604001907bffffffffffffffffffffffffffffffffffffffffffffffffffffffff191690817bffffffffffffffffffffffffffffffffffffffffffffffffffffffff191681525050849050949350505050565b610be28260038351610ddd565b610bf58183610f6290919063ffffffff16565b505050565b7fffffffffffffffffffffffffffffffffffffffffffffffff0000000000000000811215610c3157610c2c8282610f84565b610ca3565b67ffffffffffffffff811315610c5057610c4b8282610ffb565b610ca2565b60008112610c6957610c6482600083610ddd565b610ca1565b610ca0826001837fffffffffffffffffffffffffffffffffffffffffffffffffffffffffffffffff610c9b9190611a03565b610ddd565b5b5b5b5050565b6000806004549050600181610cbc9190611a97565b6004819055506000634042994660e01b60008087600001513089604001518760018c6080015160000151604051602401610cfd989796959493929190611bc1565b604051602081830303815290604052907bffffffffffffffffffffffffffffffffffffffffffffffffffffffff19166020820180517bffffffffffffffffffffffffffffffffffffffffffffffffffffffff83818316178352505050509050610d6886838684611047565b925050509392505050565b610d7b6114d3565b6000602083610d8a9190611c75565b14610db657602082610d9c9190611c75565b6020610da89190611ca6565b82610db39190611a97565b91505b81836020018181525050604051808452600081528281016020016040525082905092915050565b60178167ffffffffffffffff1611610e1457610e0e8160058460ff16901b60ff1617846111eb90919063ffffffff16565b50610f5d565b60ff8167ffffffffffffffff1611610e6a57610e43601860058460ff16901b17846111eb90919063ffffffff16565b50610e648167ffffffffffffffff1660018561120b9092919063ffffffff16565b50610f5c565b61ffff8167ffffffffffffffff1611610ec157610e9a601960058460ff16901b17846111eb90919063ffffffff16565b50610ebb8167ffffffffffffffff1660028561120b9092919063ffffffff16565b50610f5b565b63ffffffff8167ffffffffffffffff1611610f1a57610ef3601a60058460ff16901b17846111eb90919063ffffffff16565b50610f148167ffffffffffffffff1660048561120b9092919063ffffffff16565b50610f5a565b610f37601b60058460ff16901b17846111eb90919063ffffffff16565b50610f588167ffffffffffffffff1660088561120b9092919063ffffffff16565b505b5b5b5b505050565b610f6a6114d3565b610f7c8384600001515184855161122d565b905092915050565b610fa260036005600660ff16901b17836111eb90919063ffffffff16565b50610ff782827fffffffffffffffffffffffffffffffffffffffffffffffffffffffffffffffff610fd39190611a03565b604051602001610fe39190611633565b60405160208183030381529060405261131c565b5050565b61101960026005600660ff16901b17836111eb90919063ffffffff16565b50611043828260405160200161102f9190611633565b60405160208183030381529060405261131c565b5050565b6000308460405160200161105c929190611d93565b604051602081830303815290604052805190602001209050846005600083815260200190815260200160002060006101000a81548173ffffffffffffffffffffffffffffffffffffffff021916908373ffffffffffffffffffffffffffffffffffffffff160217905550807fb5e6e01e79f91267dc17b4e6314d5d4d03593d2ceee0fbb452b750bd70ea5af960405160405180910390a2600260009054906101000a900473ffffffffffffffffffffffffffffffffffffffff1673ffffffffffffffffffffffffffffffffffffffff16634000aea08685856040518463ffffffff1660e01b815260040161115293929190611dbf565b602060405180830381600087803b15801561116c57600080fd5b505af1158015611180573d6000803e3d6000fd5b505050506040513d601f19601f820116820180604052508101906111a49190611859565b6111e3576040517f08c379a00000000000000000000000000000000000000000000000000000000081526004016111da90611e6f565b60405180910390fd5b949350505050565b6111f36114d3565b6112038384600001515184611341565b905092915050565b6112136114d3565b611224848560000151518585611398565b90509392505050565b6112356114d3565b825182111561124357600080fd5b846020015182856112549190611a97565b111561128957611288856002611279886020015188876112749190611a97565b611426565b6112839190611e8f565b611442565b5b6000808651805187602083010193508088870111156112a85787860182525b60208701925050505b602084106112ef57805182526020826112ca9190611a97565b91506020816112d99190611a97565b90506020846112e89190611ca6565b93506112b1565b60006001856020036101000a03905080198251168184511681811785525050508692505050949350505050565b6113298260028351610ddd565b61133c8183610f6290919063ffffffff16565b505050565b6113496114d3565b8360200151831061136f5761136e84600286602001516113699190611e8f565b611442565b5b835180516020858301018481538186141561138b576001820183525b5050508390509392505050565b6113a06114d3565b846020015184836113b19190611a97565b11156113d9576113d885600286856113c99190611a97565b6113d39190611e8f565b611442565b5b60006001836101006113eb919061201c565b6113f59190611ca6565b905085518386820101858319825116178152815185880111156114185784870182525b505085915050949350505050565b6000818311156114385782905061143c565b8190505b92915050565b6000826000015190506114558383610d73565b506114608382610f62565b50505050565b6040518060a0016040528060008019168152602001600073ffffffffffffffffffffffffffffffffffffffff16815260200160007bffffffffffffffffffffffffffffffffffffffffffffffffffffffff19168152602001600081526020016114cd6114d3565b81525090565b604051806040016040528060608152602001600081525090565b600080fd5b6000819050919050565b611505816114f2565b811461151057600080fd5b50565b600081359050611522816114fc565b92915050565b6000819050919050565b61153b81611528565b811461154657600080fd5b50565b60008135905061155881611532565b92915050565b60008060408385031215611575576115746114ed565b5b600061158385828601611513565b925050602061159485828601611549565b9150509250929050565b600073ffffffffffffffffffffffffffffffffffffffff82169050919050565b60006115c98261159e565b9050919050565b6115d9816115be565b82525050565b60006020820190506115f460008301846115d0565b92915050565b611603816114f2565b82525050565b600060208201905061161e60008301846115fa565b92915050565b61162d81611528565b82525050565b60006020820190506116486000830184611624565b92915050565b611657816115be565b811461166257600080fd5b50565b6000813590506116748161164e565b92915050565b6000602082840312156116905761168f6114ed565b5b600061169e84828501611665565b91505092915050565b600082825260208201905092915050565b7f536f75726365206d75737420626520746865206f7261636c65206f662074686560008201527f2072657175657374000000000000000000000000000000000000000000000000602082015250565b60006117146028836116a7565b915061171f826116b8565b604082019050919050565b6000602082019050818103600083015261174381611707565b9050919050565b7f4d7573742062652070726f706f736564206f776e657200000000000000000000600082015250565b60006117806016836116a7565b915061178b8261174a565b602082019050919050565b600060208201905081810360008301526117af81611773565b9050919050565b6000815190506117c581611532565b92915050565b6000602082840312156117e1576117e06114ed565b5b60006117ef848285016117b6565b91505092915050565b600060408201905061180d60008301856115d0565b61181a6020830184611624565b9392505050565b60008115159050919050565b61183681611821565b811461184157600080fd5b50565b6000815190506118538161182d565b92915050565b60006020828403121561186f5761186e6114ed565b5b600061187d84828501611844565b91505092915050565b7f556e61626c6520746f207472616e736665720000000000000000000000000000600082015250565b60006118bc6012836116a7565b91506118c782611886565b602082019050919050565b600060208201905081810360008301526118eb816118af565b9050919050565b7f4f6e6c792063616c6c61626c65206279206f776e657200000000000000000000600082015250565b60006119286016836116a7565b9150611933826118f2565b602082019050919050565b600060208201905081810360008301526119578161191b565b9050919050565b7f43616e6e6f74207472616e7366657220746f2073656c66000000000000000000600082015250565b60006119946017836116a7565b915061199f8261195e565b602082019050919050565b600060208201905081810360008301526119c381611987565b9050919050565b6000819050919050565b7f4e487b7100000000000000000000000000000000000000000000000000000000600052601160045260246000fd5b6000611a0e826119ca565b9150611a19836119ca565b9250827f800000000000000000000000000000000000000000000000000000000000000001821260008412151615611a5457611a536119d4565b5b827f7fffffffffffffffffffffffffffffffffffffffffffffffffffffffffffffff018213600084121615611a8c57611a8b6119d4565b5b828203905092915050565b6000611aa282611528565b9150611aad83611528565b9250827fffffffffffffffffffffffffffffffffffffffffffffffffffffffffffffffff03821115611ae257611ae16119d4565b5b828201905092915050565b60007fffffffff0000000000000000000000000000000000000000000000000000000082169050919050565b611b2281611aed565b82525050565b600081519050919050565b600082825260208201905092915050565b60005b83811015611b62578082015181840152602081019050611b47565b83811115611b71576000848401525b50505050565b6000601f19601f8301169050919050565b6000611b9382611b28565b611b9d8185611b33565b9350611bad818560208601611b44565b611bb681611b77565b840191505092915050565b600061010082019050611bd7600083018b6115d0565b611be4602083018a611624565b611bf160408301896115fa565b611bfe60608301886115d0565b611c0b6080830187611b19565b611c1860a0830186611624565b611c2560c0830185611624565b81810360e0830152611c378184611b88565b90509998505050505050505050565b7f4e487b7100000000000000000000000000000000000000000000000000000000600052601260045260246000fd5b6000611c8082611528565b9150611c8b83611528565b925082611c9b57611c9a611c46565b5b828206905092915050565b6000611cb182611528565b9150611cbc83611528565b925082821015611ccf57611cce6119d4565b5b828203905092915050565b6000819050919050565b6000611cff611cfa611cf58461159e565b611cda565b61159e565b9050919050565b6000611d1182611ce4565b9050919050565b6000611d2382611d06565b9050919050565b60008160601b9050919050565b6000611d4282611d2a565b9050919050565b6000611d5482611d37565b9050919050565b611d6c611d6782611d18565b611d49565b82525050565b6000819050919050565b611d8d611d8882611528565b611d72565b82525050565b6000611d9f8285611d5b565b601482019150611daf8284611d7c565b6020820191508190509392505050565b6000606082019050611dd460008301866115d0565b611de16020830185611624565b8181036040830152611df38184611b88565b9050949350505050565b7f756e61626c6520746f207472616e73666572416e6443616c6c20746f206f726160008201527f636c650000000000000000000000000000000000000000000000000000000000602082015250565b6000611e596023836116a7565b9150611e6482611dfd565b604082019050919050565b60006020820190508181036000830152611e8881611e4c565b9050919050565b6000611e9a82611528565b9150611ea583611528565b9250817fffffffffffffffffffffffffffffffffffffffffffffffffffffffffffffffff0483118215151615611ede57611edd6119d4565b5b828202905092915050565b60008160011c9050919050565b6000808291508390505b6001851115611f4057808604811115611f1c57611f1b6119d4565b5b6001851615611f2b5780820291505b8081029050611f3985611ee9565b9450611f00565b94509492505050565b600082611f595760019050612015565b81611f675760009050612015565b8160018114611f7d5760028114611f8757611fb6565b6001915050612015565b60ff841115611f9957611f986119d4565b5b8360020a915084821115611fb057611faf6119d4565b5b50612015565b5060208310610133831016604e8410600b8410161715611feb5782820a905083811115611fe657611fe56119d4565b5b612015565b611ff88484846001611ef6565b9250905081840481111561200f5761200e6119d4565b5b81810290505b9392505050565b600061202782611528565b915061203283611528565b925061205f7fffffffffffffffffffffffffffffffffffffffffffffffffffffffffffffffff8484611f49565b90509291505056fe68747470733a2f2f726573746170692e616d61702e636f6d2f76332f776561746865722f77656174686572496e666f3f636974793d313130313031266b65793d3238323739343036613361623964343131306239396637366233626234643263a26469706673582212209724af4c7dd4c72cd16b52b6bd1eddf7abe32499afb0367989bbd842bb81ebc164736f6c63430008090033",
  "devdoc": {
    "kind": "dev",
    "methods": {},
    "version": 1
  },
  "userdoc": {
    "kind": "user",
    "methods": {
      "acceptOwnership()": {
        "notice": "Allows an ownership transfer to be completed by the recipient."
      },
      "fulfill(bytes32,uint256)": {
        "notice": " uint256 "
      },
      "owner()": {
        "notice": "Get the current owner"
      },
      "transferOwnership(address)": {
        "notice": "Allows an owner to begin transferring ownership to a new address, pending."
      }
    },
    "version": 1
  },
  "storageLayout": {
    "storage": [
      {
        "astId": 319,
        "contract": "contracts/ApiConsumer.sol:APIConsumer",
        "label": "s_ens",
        "offset": 0,
        "slot": "0",
        "type": "t_contract(ENSInterface)1156"
      },
      {
        "astId": 321,
        "contract": "contracts/ApiConsumer.sol:APIConsumer",
        "label": "s_ensNode",
        "offset": 0,
        "slot": "1",
        "type": "t_bytes32"
      },
      {
        "astId": 324,
        "contract": "contracts/ApiConsumer.sol:APIConsumer",
        "label": "s_link",
        "offset": 0,
        "slot": "2",
        "type": "t_contract(LinkTokenInterface)1251"
      },
      {
        "astId": 327,
        "contract": "contracts/ApiConsumer.sol:APIConsumer",
        "label": "s_oracle",
        "offset": 0,
        "slot": "3",
        "type": "t_contract(OperatorInterface)1331"
      },
      {
        "astId": 330,
        "contract": "contracts/ApiConsumer.sol:APIConsumer",
        "label": "s_requestCount",
        "offset": 0,
        "slot": "4",
        "type": "t_uint256"
      },
      {
        "astId": 334,
        "contract": "contracts/ApiConsumer.sol:APIConsumer",
        "label": "s_pendingRequests",
        "offset": 0,
        "slot": "5",
        "type": "t_mapping(t_bytes32,t_address)"
      },
      {
        "astId": 889,
        "contract": "contracts/ApiConsumer.sol:APIConsumer",
        "label": "s_owner",
        "offset": 0,
        "slot": "6",
        "type": "t_address"
      },
      {
        "astId": 891,
        "contract": "contracts/ApiConsumer.sol:APIConsumer",
        "label": "s_pendingOwner",
        "offset": 0,
        "slot": "7",
        "type": "t_address"
      },
      {
        "astId": 5601,
        "contract": "contracts/ApiConsumer.sol:APIConsumer",
        "label": "temperature",
        "offset": 0,
        "slot": "8",
        "type": "t_uint256"
      },
      {
        "astId": 5603,
        "contract": "contracts/ApiConsumer.sol:APIConsumer",
        "label": "jobId",
        "offset": 0,
        "slot": "9",
        "type": "t_bytes32"
      },
      {
        "astId": 5605,
        "contract": "contracts/ApiConsumer.sol:APIConsumer",
        "label": "fee",
        "offset": 0,
        "slot": "10",
        "type": "t_uint256"
      },
      {
        "astId": 5607,
        "contract": "contracts/ApiConsumer.sol:APIConsumer",
        "label": "nftAddress",
        "offset": 0,
        "slot": "11",
        "type": "t_address"
      },
      {
        "astId": 5610,
        "contract": "contracts/ApiConsumer.sol:APIConsumer",
        "label": "weatherToken",
        "offset": 0,
        "slot": "12",
        "type": "t_contract(WeatherToken)5999"
      }
    ],
    "types": {
      "t_address": {
        "encoding": "inplace",
        "label": "address",
        "numberOfBytes": "20"
      },
      "t_bytes32": {
        "encoding": "inplace",
        "label": "bytes32",
        "numberOfBytes": "32"
      },
      "t_contract(ENSInterface)1156": {
        "encoding": "inplace",
        "label": "contract ENSInterface",
        "numberOfBytes": "20"
      },
      "t_contract(LinkTokenInterface)1251": {
        "encoding": "inplace",
        "label": "contract LinkTokenInterface",
        "numberOfBytes": "20"
      },
      "t_contract(OperatorInterface)1331": {
        "encoding": "inplace",
        "label": "contract OperatorInterface",
        "numberOfBytes": "20"
      },
      "t_contract(WeatherToken)5999": {
        "encoding": "inplace",
        "label": "contract WeatherToken",
        "numberOfBytes": "20"
      },
      "t_mapping(t_bytes32,t_address)": {
        "encoding": "mapping",
        "key": "t_bytes32",
        "label": "mapping(bytes32 => address)",
        "numberOfBytes": "32",
        "value": "t_address"
      },
      "t_uint256": {
        "encoding": "inplace",
        "label": "uint256",
        "numberOfBytes": "32"
      }
    }
  }
}