{
    "address": "0xf57ecC8BdC5366A45f776828042ea2fF25f5E9D1",
    "abi": [
        {
            "inputs": [
                {
                    "internalType": "uint256",
                    "name": "_interval",
                    "type": "uint256"
                }
            ],
            "stateMutability": "nonpayable",
            "type": "constructor"
        },
        {
            "inputs": [],
            "name": "OnlySimulatedBackend",
            "type": "error"
        },
        {
            "inputs": [],
            "name": "MAXIMUM_HEALTH",
            "outputs": [
                {
                    "internalType": "uint256",
                    "name": "",
                    "type": "uint256"
                }
            ],
            "stateMutability": "view",
            "type": "function"
        },
        {
            "inputs": [],
            "name": "SIZE",
            "outputs": [
                {
                    "internalType": "uint256",
                    "name": "",
                    "type": "uint256"
                }
            ],
            "stateMutability": "view",
            "type": "function"
        },
        {
            "inputs": [
                {
                    "internalType": "bytes",
                    "name": "",
                    "type": "bytes"
                }
            ],
            "name": "checkUpkeep",
            "outputs": [
                {
                    "internalType": "bool",
                    "name": "upkeepNeeded",
                    "type": "bool"
                },
                {
                    "internalType": "bytes",
                    "name": "",
                    "type": "bytes"
                }
            ],
            "stateMutability": "view",
            "type": "function"
        },
        {
            "inputs": [
                {
                    "internalType": "uint256",
                    "name": "fighter",
                    "type": "uint256"
                }
            ],
            "name": "fight",
            "outputs": [],
            "stateMutability": "nonpayable",
            "type": "function"
        },
        {
            "inputs": [
                {
                    "internalType": "uint256",
                    "name": "",
                    "type": "uint256"
                }
            ],
            "name": "healthPoint",
            "outputs": [
                {
                    "internalType": "uint256",
                    "name": "",
                    "type": "uint256"
                }
            ],
            "stateMutability": "view",
            "type": "function"
        },
        {
            "inputs": [],
            "name": "interval",
            "outputs": [
                {
                    "internalType": "uint256",
                    "name": "",
                    "type": "uint256"
                }
            ],
            "stateMutability": "view",
            "type": "function"
        },
        {
            "inputs": [],
            "name": "lastTimeStamp",
            "outputs": [
                {
                    "internalType": "uint256",
                    "name": "",
                    "type": "uint256"
                }
            ],
            "stateMutability": "view",
            "type": "function"
        },
        {
            "inputs": [
                {
                    "internalType": "bytes",
                    "name": "",
                    "type": "bytes"
                }
            ],
            "name": "performUpkeep",
            "outputs": [],
            "stateMutability": "nonpayable",
            "type": "function"
        }
    ],
    "transactionHash": "0x8fd7dd89207e054884bc69f8607543053b646c41c592bca6b1b02f305f96ea08",
    "args": [
        3600
    ],
    "numDeployments": 1,
    "solcInputHash": "0667cf22c3dd6b8891b5b399ce87e843",
    "bytecode": "0x60a060405234801561001057600080fd5b50604051610a10380380610a10833981810160405281019061003291906100be565b42600a81905550806080818152505060005b600a81101561007c576103e8600082600a8110610064576100636100eb565b5b0181905550808061007490610149565b915050610044565b5050610192565b600080fd5b6000819050919050565b61009b81610088565b81146100a657600080fd5b50565b6000815190506100b881610092565b92915050565b6000602082840312156100d4576100d3610083565b5b60006100e2848285016100a9565b91505092915050565b7f4e487b7100000000000000000000000000000000000000000000000000000000600052603260045260246000fd5b7f4e487b7100000000000000000000000000000000000000000000000000000000600052601160045260246000fd5b600061015482610088565b91507fffffffffffffffffffffffffffffffffffffffffffffffffffffffffffffffff8214156101875761018661011a565b5b600182019050919050565b60805161085c6101b46000396000818161024401526102ad015261085c6000f3fe608060405234801561001057600080fd5b50600436106100885760003560e01c8063bdffd2821161005b578063bdffd28214610116578063df6a37aa14610134578063e98971d014610150578063f5ff71541461016e57610088565b80633f3b3b271461008d5780634585e33b146100ab5780636e04ff0d146100c7578063947a36fb146100f8575b600080fd5b61009561019e565b6040516100a2919061038e565b60405180910390f35b6100c560048036038101906100c09190610503565b6101a4565b005b6100e160048036038101906100dc9190610503565b610203565b6040516100ef9291906105ef565b60405180910390f35b6101006102ab565b60405161010d919061038e565b60405180910390f35b61011e6102cf565b60405161012b919061038e565b60405180910390f35b61014e6004803603810190610149919061064b565b6102d4565b005b610158610354565b604051610165919061038e565b60405180910390f35b6101886004803603810190610183919061064b565b61035a565b604051610195919061038e565b60405180910390f35b600a5481565b60005b600a8110156101ff576103e8600082600a81106101c7576101c6610678565b5b015410156101ec576103e8600082600a81106101e6576101e5610678565b5b01819055505b80806101f7906106d6565b9150506101a7565b5050565b600060606000915060005b600a8110801561021c575082155b15610290576103e8600082600a811061023857610237610678565b5b015410806102735750427f0000000000000000000000000000000000000000000000000000000000000000600a54610270919061071f565b10155b1561027d57600192505b8080610288906106d6565b91505061020e565b50816040518060200160405280600081525091509150915091565b7f000000000000000000000000000000000000000000000000000000000000000081565b600a81565b6001600a6102e29190610775565b811115610324576040517f08c379a000000000000000000000000000000000000000000000000000000000815260040161031b90610806565b60405180910390fd5b6064600082600a811061033a57610339610678565b5b01600082825461034a9190610775565b9250508190555050565b6103e881565b600081600a811061036a57600080fd5b016000915090505481565b6000819050919050565b61038881610375565b82525050565b60006020820190506103a3600083018461037f565b92915050565b6000604051905090565b600080fd5b600080fd5b600080fd5b600080fd5b6000601f19601f8301169050919050565b7f4e487b7100000000000000000000000000000000000000000000000000000000600052604160045260246000fd5b610410826103c7565b810181811067ffffffffffffffff8211171561042f5761042e6103d8565b5b80604052505050565b60006104426103a9565b905061044e8282610407565b919050565b600067ffffffffffffffff82111561046e5761046d6103d8565b5b610477826103c7565b9050602081019050919050565b82818337600083830152505050565b60006104a66104a184610453565b610438565b9050828152602081018484840111156104c2576104c16103c2565b5b6104cd848285610484565b509392505050565b600082601f8301126104ea576104e96103bd565b5b81356104fa848260208601610493565b91505092915050565b600060208284031215610519576105186103b3565b5b600082013567ffffffffffffffff811115610537576105366103b8565b5b610543848285016104d5565b91505092915050565b60008115159050919050565b6105618161054c565b82525050565b600081519050919050565b600082825260208201905092915050565b60005b838110156105a1578082015181840152602081019050610586565b838111156105b0576000848401525b50505050565b60006105c182610567565b6105cb8185610572565b93506105db818560208601610583565b6105e4816103c7565b840191505092915050565b60006040820190506106046000830185610558565b818103602083015261061681846105b6565b90509392505050565b61062881610375565b811461063357600080fd5b50565b6000813590506106458161061f565b92915050565b600060208284031215610661576106606103b3565b5b600061066f84828501610636565b91505092915050565b7f4e487b7100000000000000000000000000000000000000000000000000000000600052603260045260246000fd5b7f4e487b7100000000000000000000000000000000000000000000000000000000600052601160045260246000fd5b60006106e182610375565b91507fffffffffffffffffffffffffffffffffffffffffffffffffffffffffffffffff821415610714576107136106a7565b5b600182019050919050565b600061072a82610375565b915061073583610375565b9250827fffffffffffffffffffffffffffffffffffffffffffffffffffffffffffffffff0382111561076a576107696106a7565b5b828201905092915050565b600061078082610375565b915061078b83610375565b92508282101561079e5761079d6106a7565b5b828203905092915050565b600082825260208201905092915050565b7f4f7665722053495a452100000000000000000000000000000000000000000000600082015250565b60006107f0600a836107a9565b91506107fb826107ba565b602082019050919050565b6000602082019050818103600083015261081f816107e3565b905091905056fea2646970667358221220b55416ce2fd708f63d6836c099e270788bfc243a38a095632292008acada5e6c64736f6c63430008090033",
    "devdoc": {
        "kind": "dev",
        "methods": {},
        "version": 1
    },
    "userdoc": {
        "kind": "user",
        "methods": {},
        "version": 1
    },
    "storageLayout": {
        "storage": [
            {
                "astId": 226,
                "contract": "contracts/AutomationTask.sol:AutomationTask",
                "label": "healthPoint",
                "offset": 0,
                "slot": "0",
                "type": "t_array(t_uint256)10_storage"
            },
            {
                "astId": 228,
                "contract": "contracts/AutomationTask.sol:AutomationTask",
                "label": "lastTimeStamp",
                "offset": 0,
                "slot": "10",
                "type": "t_uint256"
            }
        ],
        "types": {
            "t_array(t_uint256)10_storage": {
                "base": "t_uint256",
                "encoding": "inplace",
                "label": "uint256[10]",
                "numberOfBytes": "320"
            },
            "t_uint256": {
                "encoding": "inplace",
                "label": "uint256",
                "numberOfBytes": "32"
            }
        }
    }
}