{
    "address": "0x9625a1ED1dD89DaEfE31DC21e26953b33e35A1a2",
    "abi": [
        {
            "inputs": [
                {
                    "internalType": "address",
                    "name": "_linkPriceFeed",
                    "type": "address"
                },
                {
                    "internalType": "address",
                    "name": "_btcPriceFeed",
                    "type": "address"
                },
                {
                    "internalType": "address",
                    "name": "_ethPriceFeed",
                    "type": "address"
                }
            ],
            "stateMutability": "nonpayable",
            "type": "constructor"
        },
        {
            "inputs": [],
            "name": "getBtcLatestPrice",
            "outputs": [
                {
                    "internalType": "int256",
                    "name": "",
                    "type": "int256"
                }
            ],
            "stateMutability": "view",
            "type": "function"
        },
        {
            "inputs": [],
            "name": "getBtcPriceFeed",
            "outputs": [
                {
                    "internalType": "contract AggregatorV3Interface",
                    "name": "",
                    "type": "address"
                }
            ],
            "stateMutability": "view",
            "type": "function"
        },
        {
            "inputs": [],
            "name": "getEthLatestPrice",
            "outputs": [
                {
                    "internalType": "int256",
                    "name": "",
                    "type": "int256"
                }
            ],
            "stateMutability": "view",
            "type": "function"
        },
        {
            "inputs": [],
            "name": "getEthPriceFeed",
            "outputs": [
                {
                    "internalType": "contract AggregatorV3Interface",
                    "name": "",
                    "type": "address"
                }
            ],
            "stateMutability": "view",
            "type": "function"
        },
        {
            "inputs": [],
            "name": "getLinkLatestPrice",
            "outputs": [
                {
                    "internalType": "int256",
                    "name": "",
                    "type": "int256"
                }
            ],
            "stateMutability": "view",
            "type": "function"
        },
        {
            "inputs": [],
            "name": "getLinkPriceFeed",
            "outputs": [
                {
                    "internalType": "contract AggregatorV3Interface",
                    "name": "",
                    "type": "address"
                }
            ],
            "stateMutability": "view",
            "type": "function"
        },
        {
            "inputs": [],
            "name": "owner",
            "outputs": [
                {
                    "internalType": "address",
                    "name": "",
                    "type": "address"
                }
            ],
            "stateMutability": "view",
            "type": "function"
        }
    ],
    "transactionHash": "0x68330cb15fcc30ea593b35d6f24cbf26ed4ad5daab75e99f89074a17d242130d",
    "args": [
        "0x48731cF7e84dc94C5f84577882c14Be11a5B7456",
        "0xA39434A63A52E749F02807ae27335515BA4b07F7",
        "0xD4a33860578De61DBAbDc8BFdb98FD742fA7028e"
    ],
    "numDeployments": 2,
    "solcInputHash": "35f6f6810738ba6cbd594949a71064ff",
    "bytecode": "0x608060405234801561001057600080fd5b5060405161086b38038061086b833981810160405281019061003291906101a0565b33600360006101000a81548173ffffffffffffffffffffffffffffffffffffffff021916908373ffffffffffffffffffffffffffffffffffffffff160217905550826000806101000a81548173ffffffffffffffffffffffffffffffffffffffff021916908373ffffffffffffffffffffffffffffffffffffffff16021790555081600160006101000a81548173ffffffffffffffffffffffffffffffffffffffff021916908373ffffffffffffffffffffffffffffffffffffffff16021790555080600260006101000a81548173ffffffffffffffffffffffffffffffffffffffff021916908373ffffffffffffffffffffffffffffffffffffffff1602179055505050506101f3565b600080fd5b600073ffffffffffffffffffffffffffffffffffffffff82169050919050565b600061016d82610142565b9050919050565b61017d81610162565b811461018857600080fd5b50565b60008151905061019a81610174565b92915050565b6000806000606084860312156101b9576101b861013d565b5b60006101c78682870161018b565b93505060206101d88682870161018b565b92505060406101e98682870161018b565b9150509250925092565b610669806102026000396000f3fe608060405234801561001057600080fd5b506004361061007d5760003560e01c8063a625d21d1161005b578063a625d21d146100dc578063afa7d1f0146100fa578063c20dbdaa14610118578063eb6eda5c146101365761007d565b806357b38264146100825780636a914f5e146100a05780638da5cb5b146100be575b600080fd5b61008a610154565b604051610097919061041e565b60405180910390f35b6100a8610202565b6040516100b591906104b8565b60405180910390f35b6100c661022b565b6040516100d391906104f4565b60405180910390f35b6100e4610251565b6040516100f1919061041e565b60405180910390f35b610102610301565b60405161010f91906104b8565b60405180910390f35b61012061032b565b60405161012d91906104b8565b60405180910390f35b61013e610355565b60405161014b919061041e565b60405180910390f35b60008060008054906101000a900473ffffffffffffffffffffffffffffffffffffffff1673ffffffffffffffffffffffffffffffffffffffff1663feaf968c6040518163ffffffff1660e01b815260040160a06040518083038186803b1580156101bd57600080fd5b505afa1580156101d1573d6000803e3d6000fd5b505050506040513d601f19601f820116820180604052508101906101f591906105b8565b5050509150508091505090565b60008060009054906101000a900473ffffffffffffffffffffffffffffffffffffffff16905090565b600360009054906101000a900473ffffffffffffffffffffffffffffffffffffffff1681565b600080600260009054906101000a900473ffffffffffffffffffffffffffffffffffffffff1673ffffffffffffffffffffffffffffffffffffffff1663feaf968c6040518163ffffffff1660e01b815260040160a06040518083038186803b1580156102bc57600080fd5b505afa1580156102d0573d6000803e3d6000fd5b505050506040513d601f19601f820116820180604052508101906102f491906105b8565b5050509150508091505090565b6000600260009054906101000a900473ffffffffffffffffffffffffffffffffffffffff16905090565b6000600160009054906101000a900473ffffffffffffffffffffffffffffffffffffffff16905090565b600080600160009054906101000a900473ffffffffffffffffffffffffffffffffffffffff1673ffffffffffffffffffffffffffffffffffffffff1663feaf968c6040518163ffffffff1660e01b815260040160a06040518083038186803b1580156103c057600080fd5b505afa1580156103d4573d6000803e3d6000fd5b505050506040513d601f19601f820116820180604052508101906103f891906105b8565b5050509150508091505090565b6000819050919050565b61041881610405565b82525050565b6000602082019050610433600083018461040f565b92915050565b600073ffffffffffffffffffffffffffffffffffffffff82169050919050565b6000819050919050565b600061047e61047961047484610439565b610459565b610439565b9050919050565b600061049082610463565b9050919050565b60006104a282610485565b9050919050565b6104b281610497565b82525050565b60006020820190506104cd60008301846104a9565b92915050565b60006104de82610439565b9050919050565b6104ee816104d3565b82525050565b600060208201905061050960008301846104e5565b92915050565b600080fd5b600069ffffffffffffffffffff82169050919050565b61053381610514565b811461053e57600080fd5b50565b6000815190506105508161052a565b92915050565b61055f81610405565b811461056a57600080fd5b50565b60008151905061057c81610556565b92915050565b6000819050919050565b61059581610582565b81146105a057600080fd5b50565b6000815190506105b28161058c565b92915050565b600080600080600060a086880312156105d4576105d361050f565b5b60006105e288828901610541565b95505060206105f38882890161056d565b9450506040610604888289016105a3565b9350506060610615888289016105a3565b925050608061062688828901610541565b915050929550929590935056fea264697066735822122027451d9143849b05e4f48326feb6ee8aeb7911acdf077631c42d612523dd51b464736f6c63430008090033",
    "devdoc": {
        "kind": "dev",
        "methods": {},
        "version": 1
    },
    "userdoc": {
        "kind": "user",
        "methods": {
            "constructor": {
                "notice": "步骤 1 - 在构造这里初始化 3 个 Aggregator 注意： 通过 Remix 部署在非本地环境中时 查看 aggregator 的地址 https://docs.chain.link/docs/ethereum-addresses/#Goerli%20Testnet，获得 Aggregator 合约地址 本地环境中相关参数已经在测试脚本中配置  "
            },
            "getBtcLatestPrice()": {
                "notice": "步骤 3 - 完成 getBtcLatestPrice 函数 获得 btc/usd 的价格数据"
            },
            "getEthLatestPrice()": {
                "notice": "步骤 4 - 完成 getEthLatestPrice 函数 获得 eth/usd 的价格数据"
            },
            "getLinkLatestPrice()": {
                "notice": "步骤 2 - 完成 getLinkLatestPrice 函数 获得 link/usd 的价格数据"
            },
            "getLinkPriceFeed()": {
                "notice": "步骤 5 - 通过 Remix 将合约部署合约（使用 goerli 网络） 任务成功标志： 合约部署成功 获取 link/usd, btc/usd, eth/usd 价格"
            }
        },
        "version": 1
    },
    "storageLayout": {
        "storage": [
            {
                "astId": 7034,
                "contract": "contracts/DataFeedTask.sol:DataFeedTask",
                "label": "linkPriceFeed",
                "offset": 0,
                "slot": "0",
                "type": "t_contract(AggregatorV3Interface)1186"
            },
            {
                "astId": 7037,
                "contract": "contracts/DataFeedTask.sol:DataFeedTask",
                "label": "btcPriceFeed",
                "offset": 0,
                "slot": "1",
                "type": "t_contract(AggregatorV3Interface)1186"
            },
            {
                "astId": 7040,
                "contract": "contracts/DataFeedTask.sol:DataFeedTask",
                "label": "ethPriceFeed",
                "offset": 0,
                "slot": "2",
                "type": "t_contract(AggregatorV3Interface)1186"
            },
            {
                "astId": 7042,
                "contract": "contracts/DataFeedTask.sol:DataFeedTask",
                "label": "owner",
                "offset": 0,
                "slot": "3",
                "type": "t_address"
            }
        ],
        "types": {
            "t_address": {
                "encoding": "inplace",
                "label": "address",
                "numberOfBytes": "20"
            },
            "t_contract(AggregatorV3Interface)1186": {
                "encoding": "inplace",
                "label": "contract AggregatorV3Interface",
                "numberOfBytes": "20"
            }
        }
    }
}