{
    "address": "0xC243790F5db9159861A0138362fA2336Da424BAD",
    "abi": [
        {
            "inputs": [
                {
                    "internalType": "uint64",
                    "name": "_subscriptionId",
                    "type": "uint64"
                },
                {
                    "internalType": "address",
                    "name": "vrfCoordinator",
                    "type": "address"
                },
                {
                    "internalType": "bytes32",
                    "name": "_keyHash",
                    "type": "bytes32"
                }
            ],
            "stateMutability": "nonpayable",
            "type": "constructor"
        },
        {
            "inputs": [
                {
                    "internalType": "address",
                    "name": "have",
                    "type": "address"
                },
                {
                    "internalType": "address",
                    "name": "want",
                    "type": "address"
                }
            ],
            "name": "OnlyCoordinatorCanFulfill",
            "type": "error"
        },
        {
            "anonymous": false,
            "inputs": [
                {
                    "indexed": false,
                    "internalType": "uint256[]",
                    "name": "randomWords",
                    "type": "uint256[]"
                }
            ],
            "name": "ReturnedRandomness",
            "type": "event"
        },
        {
            "inputs": [
                {
                    "internalType": "uint256",
                    "name": "requestId",
                    "type": "uint256"
                },
                {
                    "internalType": "uint256[]",
                    "name": "randomWords",
                    "type": "uint256[]"
                }
            ],
            "name": "rawFulfillRandomWords",
            "outputs": [],
            "stateMutability": "nonpayable",
            "type": "function"
        },
        {
            "inputs": [],
            "name": "requestRandomWords",
            "outputs": [],
            "stateMutability": "nonpayable",
            "type": "function"
        },
        {
            "inputs": [
                {
                    "internalType": "uint256",
                    "name": "",
                    "type": "uint256"
                }
            ],
            "name": "s_randomWords",
            "outputs": [
                {
                    "internalType": "uint256",
                    "name": "",
                    "type": "uint256"
                }
            ],
            "stateMutability": "view",
            "type": "function"
        },
        {
            "inputs": [],
            "name": "s_requestId",
            "outputs": [
                {
                    "internalType": "uint256",
                    "name": "",
                    "type": "uint256"
                }
            ],
            "stateMutability": "view",
            "type": "function"
        }
    ],
    "transactionHash": "0x07f6a4cfa43344b45a4f531118704a79f5312347edb4f4b289bf10d359f1d905",
    "args": [
        "5338",
        "0x2ca8e0c643bde4c2e08ab1fa0da3401adad7734d",
        "0x79d3d8832d904592c0bf9818b621522c988bb8b0c05cdc3b15aea1b6e8db0c15"
    ],
    "numDeployments": 1,
    "solcInputHash": "f39436f832c1deff76edaa2e8d8a3c62",
    "bytecode": "0x6101006040523480156200001257600080fd5b5060405162000fba38038062000fba8339818101604052810190620000389190620001fa565b818073ffffffffffffffffffffffffffffffffffffffff1660808173ffffffffffffffffffffffffffffffffffffffff16815250505033600260006101000a81548173ffffffffffffffffffffffffffffffffffffffff021916908373ffffffffffffffffffffffffffffffffffffffff1602179055508173ffffffffffffffffffffffffffffffffffffffff1660a08173ffffffffffffffffffffffffffffffffffffffff16815250508267ffffffffffffffff1660c08167ffffffffffffffff16815250508060e0818152505050505062000256565b600080fd5b600067ffffffffffffffff82169050919050565b620001348162000115565b81146200014057600080fd5b50565b600081519050620001548162000129565b92915050565b600073ffffffffffffffffffffffffffffffffffffffff82169050919050565b600062000187826200015a565b9050919050565b62000199816200017a565b8114620001a557600080fd5b50565b600081519050620001b9816200018e565b92915050565b6000819050919050565b620001d481620001bf565b8114620001e057600080fd5b50565b600081519050620001f481620001c9565b92915050565b60008060006060848603121562000216576200021562000110565b5b6000620002268682870162000143565b93505060206200023986828701620001a8565b92505060406200024c86828701620001e3565b9150509250925092565b60805160a05160c05160e051610d24620002966000396000610277015260006102980152600061023b01526000818160c7015261011b0152610d246000f3fe608060405234801561001057600080fd5b506004361061004c5760003560e01c80631fe543e314610051578063e0c862891461006d578063e89e106a14610077578063f6eaffc814610095575b600080fd5b61006b60048036038101906100669190610795565b6100c5565b005b610075610185565b005b61007f610339565b60405161008c9190610800565b60405180910390f35b6100af60048036038101906100aa919061081b565b61033f565b6040516100bc9190610800565b60405180910390f35b7f000000000000000000000000000000000000000000000000000000000000000073ffffffffffffffffffffffffffffffffffffffff163373ffffffffffffffffffffffffffffffffffffffff161461017757337f00000000000000000000000000000000000000000000000000000000000000006040517f1cf993f400000000000000000000000000000000000000000000000000000000815260040161016e929190610889565b60405180910390fd5b6101818282610363565b5050565b600260009054906101000a900473ffffffffffffffffffffffffffffffffffffffff1673ffffffffffffffffffffffffffffffffffffffff163373ffffffffffffffffffffffffffffffffffffffff16146101df57600080fd5b600260009054906101000a900473ffffffffffffffffffffffffffffffffffffffff1673ffffffffffffffffffffffffffffffffffffffff163373ffffffffffffffffffffffffffffffffffffffff161461023957600080fd5b7f000000000000000000000000000000000000000000000000000000000000000073ffffffffffffffffffffffffffffffffffffffff16635d3b1d307f00000000000000000000000000000000000000000000000000000000000000007f0000000000000000000000000000000000000000000000000000000000000000600362030d4060016040518663ffffffff1660e01b81526004016102df95949392919061092a565b602060405180830381600087803b1580156102f957600080fd5b505af115801561030d573d6000803e3d6000fd5b505050506040513d601f19601f820116820180604052508101906103319190610992565b600181905550565b60015481565b6000818154811061034f57600080fd5b906000526020600020016000915090505481565b6000600567ffffffffffffffff8111156103805761037f610652565b5b6040519080825280602002602001820160405280156103ae5781602001602082028036833780820191505090505b50905060005b60058110156103fc576001816103ca91906109ee565b8282815181106103dd576103dc610a44565b5b60200260200101818152505080806103f490610a73565b9150506103b4565b5060008260008151811061041357610412610a44565b5b602002602001015160405160200161042b9190610add565b6040516020818303038152906040528051906020012090506000600490506000600190505b6004811015610531576000828460001c61046a9190610b27565b9050600085848151811061048157610480610a44565b5b6020026020010151905085828151811061049e5761049d610a44565b5b60200260200101518685815181106104b9576104b8610a44565b5b602002602001018181525050808683815181106104d9576104d8610a44565b5b60200260200101818152505083806104f090610b58565b945050846040516020016105049190610ba3565b6040516020818303038152906040528051906020012094505050808061052990610a73565b915050610450565b508260009080519060200190610548929190610588565b507fefb16d61046900da527008568620fb9f8420e2f5ed4de3bfbded5035c9362b0e60006040516105799190610ccc565b60405180910390a15050505050565b8280548282559060005260206000209081019282156105c4579160200282015b828111156105c35782518255916020019190600101906105a8565b5b5090506105d191906105d5565b5090565b5b808211156105ee5760008160009055506001016105d6565b5090565b6000604051905090565b600080fd5b600080fd5b6000819050919050565b61061981610606565b811461062457600080fd5b50565b60008135905061063681610610565b92915050565b600080fd5b6000601f19601f8301169050919050565b7f4e487b7100000000000000000000000000000000000000000000000000000000600052604160045260246000fd5b61068a82610641565b810181811067ffffffffffffffff821117156106a9576106a8610652565b5b80604052505050565b60006106bc6105f2565b90506106c88282610681565b919050565b600067ffffffffffffffff8211156106e8576106e7610652565b5b602082029050602081019050919050565b600080fd5b600061071161070c846106cd565b6106b2565b90508083825260208201905060208402830185811115610734576107336106f9565b5b835b8181101561075d57806107498882610627565b845260208401935050602081019050610736565b5050509392505050565b600082601f83011261077c5761077b61063c565b5b813561078c8482602086016106fe565b91505092915050565b600080604083850312156107ac576107ab6105fc565b5b60006107ba85828601610627565b925050602083013567ffffffffffffffff8111156107db576107da610601565b5b6107e785828601610767565b9150509250929050565b6107fa81610606565b82525050565b600060208201905061081560008301846107f1565b92915050565b600060208284031215610831576108306105fc565b5b600061083f84828501610627565b91505092915050565b600073ffffffffffffffffffffffffffffffffffffffff82169050919050565b600061087382610848565b9050919050565b61088381610868565b82525050565b600060408201905061089e600083018561087a565b6108ab602083018461087a565b9392505050565b6000819050919050565b6108c5816108b2565b82525050565b600067ffffffffffffffff82169050919050565b6108e8816108cb565b82525050565b600061ffff82169050919050565b610905816108ee565b82525050565b600063ffffffff82169050919050565b6109248161090b565b82525050565b600060a08201905061093f60008301886108bc565b61094c60208301876108df565b61095960408301866108fc565b610966606083018561091b565b610973608083018461091b565b9695505050505050565b60008151905061098c81610610565b92915050565b6000602082840312156109a8576109a76105fc565b5b60006109b68482850161097d565b91505092915050565b7f4e487b7100000000000000000000000000000000000000000000000000000000600052601160045260246000fd5b60006109f982610606565b9150610a0483610606565b9250827fffffffffffffffffffffffffffffffffffffffffffffffffffffffffffffffff03821115610a3957610a386109bf565b5b828201905092915050565b7f4e487b7100000000000000000000000000000000000000000000000000000000600052603260045260246000fd5b6000610a7e82610606565b91507fffffffffffffffffffffffffffffffffffffffffffffffffffffffffffffffff821415610ab157610ab06109bf565b5b600182019050919050565b6000819050919050565b610ad7610ad282610606565b610abc565b82525050565b6000610ae98284610ac6565b60208201915081905092915050565b7f4e487b7100000000000000000000000000000000000000000000000000000000600052601260045260246000fd5b6000610b3282610606565b9150610b3d83610606565b925082610b4d57610b4c610af8565b5b828206905092915050565b6000610b6382610606565b91506000821415610b7757610b766109bf565b5b600182039050919050565b6000819050919050565b610b9d610b98826108b2565b610b82565b82525050565b6000610baf8284610b8c565b60208201915081905092915050565b600081549050919050565b600082825260208201905092915050565b60008190508160005260206000209050919050565b610bf881610606565b82525050565b6000610c0a8383610bef565b60208301905092915050565b60008160001c9050919050565b6000819050919050565b6000610c40610c3b83610c16565b610c23565b9050919050565b6000610c538254610c2d565b9050919050565b6000600182019050919050565b6000610c7282610bbe565b610c7c8185610bc9565b9350610c8783610bda565b8060005b83811015610cbf57610c9c82610c47565b610ca68882610bfe565b9750610cb183610c5a565b925050600181019050610c8b565b5085935050505092915050565b60006020820190508181036000830152610ce68184610c67565b90509291505056fea26469706673582212204cedb2226f98db2d54828b86dfd7954010933ff020fe08d94624a20fa2ca2b6164736f6c63430008090033",
    "devdoc": {
        "kind": "dev",
        "methods": {},
        "version": 1
    },
    "userdoc": {
        "kind": "user",
        "methods": {
            "constructor": {
                "notice": "步骤 2 - 在构造函数中，初始化相关变量 COORDINATOR，s_subscriptionId 和 s_keyHash "
            },
            "requestRandomWords()": {
                "notice": "步骤 3 - 发送随机数请求 "
            }
        },
        "version": 1
    },
    "storageLayout": {
        "storage": [
            {
                "astId": 178,
                "contract": "contracts/VRFTask.sol:VRFTask",
                "label": "s_randomWords",
                "offset": 0,
                "slot": "0",
                "type": "t_array(t_uint256)dyn_storage"
            },
            {
                "astId": 180,
                "contract": "contracts/VRFTask.sol:VRFTask",
                "label": "s_requestId",
                "offset": 0,
                "slot": "1",
                "type": "t_uint256"
            },
            {
                "astId": 182,
                "contract": "contracts/VRFTask.sol:VRFTask",
                "label": "s_owner",
                "offset": 0,
                "slot": "2",
                "type": "t_address"
            }
        ],
        "types": {
            "t_address": {
                "encoding": "inplace",
                "label": "address",
                "numberOfBytes": "20"
            },
            "t_array(t_uint256)dyn_storage": {
                "base": "t_uint256",
                "encoding": "dynamic_array",
                "label": "uint256[]",
                "numberOfBytes": "32"
            },
            "t_uint256": {
                "encoding": "inplace",
                "label": "uint256",
                "numberOfBytes": "32"
            }
        }
    }
}